{
  "contractName": "RegistroInvestigaciones",
  "abi": [
    {
      "inputs": [],
      "payable": false,
      "stateMutability": "nonpayable",
      "type": "constructor"
    },
    {
      "constant": false,
      "inputs": [
        {
          "name": "param_nombre_institucion",
          "type": "string"
        },
        {
          "name": "param_identificador_institucion",
          "type": "uint256"
        },
        {
          "name": "param_nombre_Investigador",
          "type": "string"
        },
        {
          "name": "param_apellido1_Investigador",
          "type": "string"
        },
        {
          "name": "param_apellido2_Investigador",
          "type": "string"
        },
        {
          "name": "param_timestamp",
          "type": "string"
        },
        {
          "name": "param_hash_documento",
          "type": "string"
        }
      ],
      "name": "registrarInvestigacion",
      "outputs": [],
      "payable": false,
      "stateMutability": "nonpayable",
      "type": "function"
    },
    {
      "constant": true,
      "inputs": [],
      "name": "getNumeroTotalInvestigaciones",
      "outputs": [
        {
          "name": "_totalInvestigaciones",
          "type": "uint256"
        }
      ],
      "payable": false,
      "stateMutability": "view",
      "type": "function"
    },
    {
      "constant": true,
      "inputs": [
        {
          "name": "param_identificador_institucion",
          "type": "uint256"
        }
      ],
      "name": "getNumeroTotalInvestigacionesInstitucion",
      "outputs": [
        {
          "name": "_totalInvestigacionesInst",
          "type": "uint256"
        }
      ],
      "payable": false,
      "stateMutability": "view",
      "type": "function"
    },
    {
      "constant": true,
      "inputs": [
        {
          "name": "param_idInvestigacion",
          "type": "uint256"
        }
      ],
      "name": "getInfoInvestigacionByID",
      "outputs": [
        {
          "name": "_nombre_Investigador",
          "type": "string"
        },
        {
          "name": "_apellido1_Investigador",
          "type": "string"
        },
        {
          "name": "_apellido2_Investigador",
          "type": "string"
        },
        {
          "name": "_timestamp",
          "type": "string"
        },
        {
          "name": "_hash_documento",
          "type": "string"
        },
        {
          "name": "_identificador_institucion",
          "type": "uint256"
        },
        {
          "name": "_identificador_documento",
          "type": "uint256"
        }
      ],
      "payable": false,
      "stateMutability": "view",
      "type": "function"
    },
    {
      "constant": true,
      "inputs": [
        {
          "name": "param_hashDocumento",
          "type": "string"
        }
      ],
      "name": "getInfoInvestigacionByHash",
      "outputs": [
        {
          "name": "_nombre_Investigador",
          "type": "string"
        },
        {
          "name": "_apellido1_Investigador",
          "type": "string"
        },
        {
          "name": "_apellido2_Investigador",
          "type": "string"
        },
        {
          "name": "_timestamp",
          "type": "string"
        },
        {
          "name": "_hash_documento",
          "type": "string"
        },
        {
          "name": "_identificador_institucion",
          "type": "uint256"
        },
        {
          "name": "_identificador_documento",
          "type": "uint256"
        }
      ],
      "payable": false,
      "stateMutability": "view",
      "type": "function"
    },
    {
      "constant": true,
      "inputs": [
        {
          "name": "param_identificador_institucion",
          "type": "uint256"
        },
        {
          "name": "param_identificador_investigacion",
          "type": "uint256"
        }
      ],
      "name": "getInfoInvestigacionByInstAndID",
      "outputs": [
        {
          "name": "_nombre_Institucion",
          "type": "string"
        },
        {
          "name": "_identificador_institucion",
          "type": "uint256"
        },
        {
          "name": "_nombre_Investigador",
          "type": "string"
        },
        {
          "name": "_apellido1_Investigador",
          "type": "string"
        },
        {
          "name": "_apellido2_Investigador",
          "type": "string"
        },
        {
          "name": "_timestamp",
          "type": "string"
        },
        {
          "name": "_hash_documento",
          "type": "string"
        },
        {
          "name": "_identificador_documento",
          "type": "uint256"
        }
      ],
      "payable": false,
      "stateMutability": "view",
      "type": "function"
    },
    {
      "constant": true,
      "inputs": [
        {
          "name": "addr",
          "type": "address"
        }
      ],
      "name": "isAdmin",
      "outputs": [
        {
          "name": "resultado",
          "type": "bool"
        }
      ],
      "payable": false,
      "stateMutability": "view",
      "type": "function"
    }
  ],
  "bytecode": "0x608060405234801561001057600080fd5b5033600460006101000a81548173ffffffffffffffffffffffffffffffffffffffff021916908373ffffffffffffffffffffffffffffffffffffffff16021790555060006003819055506127bd806100696000396000f300608060405260043610610083576000357c0100000000000000000000000000000000000000000000000000000000900463ffffffff168063197ffbb21461008857806324d7806c146100b35780636deb9bc61461010e5780637137ff5c146103ae578063a41ea21a1461057f578063d3736c25146107e3578063e05d4d0614610abd575b600080fd5b34801561009457600080fd5b5061009d610afe565b6040518082815260200191505060405180910390f35b3480156100bf57600080fd5b506100f4600480360381019080803573ffffffffffffffffffffffffffffffffffffffff169060200190929190505050610b08565b604051808215151515815260200191505060405180910390f35b34801561011a57600080fd5b50610175600480360381019080803590602001908201803590602001908080601f0160208091040260200160405190810160405280939291908181526020018383808284378201915050505050509192919290505050610b73565b60405180806020018060200180602001806020018060200188815260200187815260200186810386528d818151815260200191508051906020019080838360005b838110156101d15780820151818401526020810190506101b6565b50505050905090810190601f1680156101fe5780820380516001836020036101000a031916815260200191505b5086810385528c818151815260200191508051906020019080838360005b8381101561023757808201518184015260208101905061021c565b50505050905090810190601f1680156102645780820380516001836020036101000a031916815260200191505b5086810384528b818151815260200191508051906020019080838360005b8381101561029d578082015181840152602081019050610282565b50505050905090810190601f1680156102ca5780820380516001836020036101000a031916815260200191505b5086810383528a818151815260200191508051906020019080838360005b838110156103035780820151818401526020810190506102e8565b50505050905090810190601f1680156103305780820380516001836020036101000a031916815260200191505b50868103825289818151815260200191508051906020019080838360005b8381101561036957808201518184015260208101905061034e565b50505050905090810190601f1680156103965780820380516001836020036101000a031916815260200191505b509c5050505050505050505050505060405180910390f35b3480156103ba57600080fd5b5061057d600480360381019080803590602001908201803590602001908080601f016020809104026020016040519081016040528093929190818152602001838380828437820191505050505050919291929080359060200190929190803590602001908201803590602001908080601f0160208091040260200160405190810160405280939291908181526020018383808284378201915050505050509192919290803590602001908201803590602001908080601f0160208091040260200160405190810160405280939291908181526020018383808284378201915050505050509192919290803590602001908201803590602001908080601f0160208091040260200160405190810160405280939291908181526020018383808284378201915050505050509192919290803590602001908201803590602001908080601f0160208091040260200160405190810160405280939291908181526020018383808284378201915050505050509192919290803590602001908201803590602001908080601f01602080910402602001604051908101604052809392919081815260200183838082843782019150505050505091929192905050506111ad565b005b34801561058b57600080fd5b506105aa60048036038101908080359060200190929190505050611c70565b60405180806020018060200180602001806020018060200188815260200187815260200186810386528d818151815260200191508051906020019080838360005b838110156106065780820151818401526020810190506105eb565b50505050905090810190601f1680156106335780820380516001836020036101000a031916815260200191505b5086810385528c818151815260200191508051906020019080838360005b8381101561066c578082015181840152602081019050610651565b50505050905090810190601f1680156106995780820380516001836020036101000a031916815260200191505b5086810384528b818151815260200191508051906020019080838360005b838110156106d25780820151818401526020810190506106b7565b50505050905090810190601f1680156106ff5780820380516001836020036101000a031916815260200191505b5086810383528a818151815260200191508051906020019080838360005b8381101561073857808201518184015260208101905061071d565b50505050905090810190601f1680156107655780820380516001836020036101000a031916815260200191505b50868103825289818151815260200191508051906020019080838360005b8381101561079e578082015181840152602081019050610783565b50505050905090810190601f1680156107cb5780820380516001836020036101000a031916815260200191505b509c5050505050505050505050505060405180910390f35b3480156107ef57600080fd5b5061081860048036038101908080359060200190929190803590602001909291905050506120ee565b6040518080602001898152602001806020018060200180602001806020018060200188815260200187810387528f818151815260200191508051906020019080838360005b8381101561087857808201518184015260208101905061085d565b50505050905090810190601f1680156108a55780820380516001836020036101000a031916815260200191505b5087810386528d818151815260200191508051906020019080838360005b838110156108de5780820151818401526020810190506108c3565b50505050905090810190601f16801561090b5780820380516001836020036101000a031916815260200191505b5087810385528c818151815260200191508051906020019080838360005b83811015610944578082015181840152602081019050610929565b50505050905090810190601f1680156109715780820380516001836020036101000a031916815260200191505b5087810384528b818151815260200191508051906020019080838360005b838110156109aa57808201518184015260208101905061098f565b50505050905090810190601f1680156109d75780820380516001836020036101000a031916815260200191505b5087810383528a818151815260200191508051906020019080838360005b83811015610a105780820151818401526020810190506109f5565b50505050905090810190601f168015610a3d5780820380516001836020036101000a031916815260200191505b50878103825289818151815260200191508051906020019080838360005b83811015610a76578082015181840152602081019050610a5b565b50505050905090810190601f168015610aa35780820380516001836020036101000a031916815260200191505b509e50505050505050505050505050505060405180910390f35b348015610ac957600080fd5b50610ae8600480360381019080803590602001909291905050506126cd565b6040518082815260200191505060405180910390f35b6000600354905090565b6000600460009054906101000a900473ffffffffffffffffffffffffffffffffffffffff1673ffffffffffffffffffffffffffffffffffffffff168273ffffffffffffffffffffffffffffffffffffffff161415610b695760019050610b6e565b600090505b919050565b60608060608060606000806002886040518082805190602001908083835b602083101515610bb65780518252602082019150602081019050602083039250610b91565b6001836020036101000a03801982511681845116808217855250505050505090500191505090815260200160405180910390206000018054600181600116156101000203166002900480601f016020809104026020016040519081016040528092919081815260200182805460018160011615610100020316600290048015610c805780601f10610c5557610100808354040283529160200191610c80565b820191906000526020600020905b815481529060010190602001808311610c6357829003601f168201915b505050505096506002886040518082805190602001908083835b602083101515610cbf5780518252602082019150602081019050602083039250610c9a565b6001836020036101000a03801982511681845116808217855250505050505090500191505090815260200160405180910390206001018054600181600116156101000203166002900480601f016020809104026020016040519081016040528092919081815260200182805460018160011615610100020316600290048015610d895780601f10610d5e57610100808354040283529160200191610d89565b820191906000526020600020905b815481529060010190602001808311610d6c57829003601f168201915b505050505095506002886040518082805190602001908083835b602083101515610dc85780518252602082019150602081019050602083039250610da3565b6001836020036101000a03801982511681845116808217855250505050505090500191505090815260200160405180910390206002018054600181600116156101000203166002900480601f016020809104026020016040519081016040528092919081815260200182805460018160011615610100020316600290048015610e925780601f10610e6757610100808354040283529160200191610e92565b820191906000526020600020905b815481529060010190602001808311610e7557829003601f168201915b505050505094506002886040518082805190602001908083835b602083101515610ed15780518252602082019150602081019050602083039250610eac565b6001836020036101000a03801982511681845116808217855250505050505090500191505090815260200160405180910390206003018054600181600116156101000203166002900480601f016020809104026020016040519081016040528092919081815260200182805460018160011615610100020316600290048015610f9b5780601f10610f7057610100808354040283529160200191610f9b565b820191906000526020600020905b815481529060010190602001808311610f7e57829003601f168201915b505050505093506002886040518082805190602001908083835b602083101515610fda5780518252602082019150602081019050602083039250610fb5565b6001836020036101000a03801982511681845116808217855250505050505090500191505090815260200160405180910390206004018054600181600116156101000203166002900480601f0160208091040260200160405190810160405280929190818152602001828054600181600116156101000203166002900480156110a45780601f10611079576101008083540402835291602001916110a4565b820191906000526020600020905b81548152906001019060200180831161108757829003601f168201915b505050505092506002886040518082805190602001908083835b6020831015156110e357805182526020820191506020810190506020830392506110be565b6001836020036101000a03801982511681845116808217855250505050505090500191505090815260200160405180910390206005015491506002886040518082805190602001908083835b602083101515611154578051825260208201915060208101905060208303925061112f565b6001836020036101000a0380198251168184511680821785525050505050509050019150509081526020016040518091039020600601549050868686868686869650965096509650965096509650919395979092949650565b60008760008089815260200190815260200160002060000190805190602001906111d89291906126ec565b50866000808981526020019081526020016000206001018190555060008088815260200190815260200160002060020154905085600080898152602001908152602001600020600301600083815260200190815260200160002060000190805190602001906112489291906126ec565b5084600080898152602001908152602001600020600301600083815260200190815260200160002060010190805190602001906112869291906126ec565b5083600080898152602001908152602001600020600301600083815260200190815260200160002060020190805190602001906112c49291906126ec565b5082600080898152602001908152602001600020600301600083815260200190815260200160002060030190805190602001906113029291906126ec565b5081600080898152602001908152602001600020600301600083815260200190815260200160002060040190805190602001906113409291906126ec565b508660008089815260200190815260200160002060030160008381526020019081526020016000206005018190555060035460008089815260200190815260200160002060030160008381526020019081526020016000206006018190555085600080898152602001908152602001600020600401836040518082805190602001908083835b6020831015156113eb57805182526020820191506020810190506020830392506113c6565b6001836020036101000a038019825116818451168082178552505050505050905001915050908152602001604051809103902060000190805190602001906114349291906126ec565b5084600080898152602001908152602001600020600401836040518082805190602001908083835b602083101515611481578051825260208201915060208101905060208303925061145c565b6001836020036101000a038019825116818451168082178552505050505050905001915050908152602001604051809103902060010190805190602001906114ca9291906126ec565b5083600080898152602001908152602001600020600401836040518082805190602001908083835b60208310151561151757805182526020820191506020810190506020830392506114f2565b6001836020036101000a038019825116818451168082178552505050505050905001915050908152602001604051809103902060020190805190602001906115609291906126ec565b5082600080898152602001908152602001600020600401836040518082805190602001908083835b6020831015156115ad5780518252602082019150602081019050602083039250611588565b6001836020036101000a038019825116818451168082178552505050505050905001915050908152602001604051809103902060030190805190602001906115f69291906126ec565b5081600080898152602001908152602001600020600401836040518082805190602001908083835b602083101515611643578051825260208201915060208101905060208303925061161e565b6001836020036101000a0380198251168184511680821785525050505050509050019150509081526020016040518091039020600401908051906020019061168c9291906126ec565b5086600080898152602001908152602001600020600401836040518082805190602001908083835b6020831015156116d957805182526020820191506020810190506020830392506116b4565b6001836020036101000a038019825116818451168082178552505050505050905001915050908152602001604051809103902060050181905550600354600080898152602001908152602001600020600401836040518082805190602001908083835b602083101515611761578051825260208201915060208101905060208303925061173c565b6001836020036101000a038019825116818451168082178552505050505050905001915050908152602001604051809103902060060181905550600080888152602001908152602001600020600201600081548092919060010191905055508560016000600354815260200190815260200160002060000190805190602001906117ec9291906126ec565b508460016000600354815260200190815260200160002060010190805190602001906118199291906126ec565b508360016000600354815260200190815260200160002060020190805190602001906118469291906126ec565b508260016000600354815260200190815260200160002060030190805190602001906118739291906126ec565b508160016000600354815260200190815260200160002060040190805190602001906118a09291906126ec565b50866001600060035481526020019081526020016000206005018190555060035460016000600354815260200190815260200160002060060181905550856002836040518082805190602001908083835b60208310151561191657805182526020820191506020810190506020830392506118f1565b6001836020036101000a0380198251168184511680821785525050505050509050019150509081526020016040518091039020600001908051906020019061195f9291906126ec565b50846002836040518082805190602001908083835b6020831015156119995780518252602082019150602081019050602083039250611974565b6001836020036101000a038019825116818451168082178552505050505050905001915050908152602001604051809103902060010190805190602001906119e29291906126ec565b50836002836040518082805190602001908083835b602083101515611a1c57805182526020820191506020810190506020830392506119f7565b6001836020036101000a03801982511681845116808217855250505050505090500191505090815260200160405180910390206002019080519060200190611a659291906126ec565b50826002836040518082805190602001908083835b602083101515611a9f5780518252602082019150602081019050602083039250611a7a565b6001836020036101000a03801982511681845116808217855250505050505090500191505090815260200160405180910390206003019080519060200190611ae89291906126ec565b50816002836040518082805190602001908083835b602083101515611b225780518252602082019150602081019050602083039250611afd565b6001836020036101000a03801982511681845116808217855250505050505090500191505090815260200160405180910390206004019080519060200190611b6b9291906126ec565b50866002836040518082805190602001908083835b602083101515611ba55780518252602082019150602081019050602083039250611b80565b6001836020036101000a0380198251168184511680821785525050505050509050019150509081526020016040518091039020600501819055506003546002836040518082805190602001908083835b602083101515611c1a5780518252602082019150602081019050602083039250611bf5565b6001836020036101000a0380198251168184511680821785525050505050509050019150509081526020016040518091039020600601819055506003600081548092919060010191905055505050505050505050565b606080606080606060008060008810158015611c8d575060035488105b1515611d27576040517f08c379a00000000000000000000000000000000000000000000000000000000081526004018080602001828103825260408152602001807f4964656e746966696361646f72206465206c6120696e7665737469676163696f81526020017f6e206e6f207265676973747261646120656e206c6120626c6f636b636861696e81525060400191505060405180910390fd5b600160008981526020019081526020016000206000018054600181600116156101000203166002900480601f016020809104026020016040519081016040528092919081815260200182805460018160011615610100020316600290048015611dd15780601f10611da657610100808354040283529160200191611dd1565b820191906000526020600020905b815481529060010190602001808311611db457829003601f168201915b50505050509650600160008981526020019081526020016000206001018054600181600116156101000203166002900480601f016020809104026020016040519081016040528092919081815260200182805460018160011615610100020316600290048015611e825780601f10611e5757610100808354040283529160200191611e82565b820191906000526020600020905b815481529060010190602001808311611e6557829003601f168201915b50505050509550600160008981526020019081526020016000206002018054600181600116156101000203166002900480601f016020809104026020016040519081016040528092919081815260200182805460018160011615610100020316600290048015611f335780601f10611f0857610100808354040283529160200191611f33565b820191906000526020600020905b815481529060010190602001808311611f1657829003601f168201915b50505050509450600160008981526020019081526020016000206003018054600181600116156101000203166002900480601f016020809104026020016040519081016040528092919081815260200182805460018160011615610100020316600290048015611fe45780601f10611fb957610100808354040283529160200191611fe4565b820191906000526020600020905b815481529060010190602001808311611fc757829003601f168201915b50505050509350600160008981526020019081526020016000206004018054600181600116156101000203166002900480601f0160208091040260200160405190810160405280929190818152602001828054600181600116156101000203166002900480156120955780601f1061206a57610100808354040283529160200191612095565b820191906000526020600020905b81548152906001019060200180831161207857829003601f168201915b505050505092506001600089815260200190815260200160002060050154915060016000898152602001908152602001600020600601549050868686868686869650965096509650965096509650919395979092949650565b606060006060806060806060600080891015801561212057506000808b81526020019081526020016000206002015489105b15156121e0576040517f08c379a00000000000000000000000000000000000000000000000000000000081526004018080602001828103825260578152602001807f4964656e746966696361646f72206465206c6120696e7665737469676163696f81526020017f6e206e6f207265676973747261646120656e206c6120626c6f636b636861696e81526020017f207061726120646963686120696e737469747563696f6e00000000000000000081525060600191505060405180910390fd5b6000808b81526020019081526020016000206000018054600181600116156101000203166002900480601f0160208091040260200160405190810160405280929190818152602001828054600181600116156101000203166002900480156122895780601f1061225e57610100808354040283529160200191612289565b820191906000526020600020905b81548152906001019060200180831161226c57829003601f168201915b505050505097506000808b81526020019081526020016000206001015496506000808b815260200190815260200160002060030160008a81526020019081526020016000206000018054600181600116156101000203166002900480601f0160208091040260200160405190810160405280929190818152602001828054600181600116156101000203166002900480156123655780601f1061233a57610100808354040283529160200191612365565b820191906000526020600020905b81548152906001019060200180831161234857829003601f168201915b505050505095506000808b815260200190815260200160002060030160008a81526020019081526020016000206001018054600181600116156101000203166002900480601f0160208091040260200160405190810160405280929190818152602001828054600181600116156101000203166002900480156124295780601f106123fe57610100808354040283529160200191612429565b820191906000526020600020905b81548152906001019060200180831161240c57829003601f168201915b505050505094506000808b815260200190815260200160002060030160008a81526020019081526020016000206002018054600181600116156101000203166002900480601f0160208091040260200160405190810160405280929190818152602001828054600181600116156101000203166002900480156124ed5780601f106124c2576101008083540402835291602001916124ed565b820191906000526020600020905b8154815290600101906020018083116124d057829003601f168201915b505050505093506000808b815260200190815260200160002060030160008a81526020019081526020016000206003018054600181600116156101000203166002900480601f0160208091040260200160405190810160405280929190818152602001828054600181600116156101000203166002900480156125b15780601f10612586576101008083540402835291602001916125b1565b820191906000526020600020905b81548152906001019060200180831161259457829003601f168201915b505050505092506000808b815260200190815260200160002060030160008a81526020019081526020016000206004018054600181600116156101000203166002900480601f0160208091040260200160405190810160405280929190818152602001828054600181600116156101000203166002900480156126755780601f1061264a57610100808354040283529160200191612675565b820191906000526020600020905b81548152906001019060200180831161265857829003601f168201915b505050505091506000808b815260200190815260200160002060030160008a81526020019081526020016000206006015490508787878787878787975097509750975097509750975097509295985092959890939650565b6000806000838152602001908152602001600020600201549050919050565b828054600181600116156101000203166002900490600052602060002090601f016020900481019282601f1061272d57805160ff191683800117855561275b565b8280016001018555821561275b579182015b8281111561275a57825182559160200191906001019061273f565b5b509050612768919061276c565b5090565b61278e91905b8082111561278a576000816000905550600101612772565b5090565b905600a165627a7a723058204bd0bfc148ed0fd5459ce59f4bd1104a8f951c7379d29c4ad2f11b463c4ca6630029",
  "source": "// SPDX-License-Identifier: MIT\npragma solidity >=0.4.22 <0.9.0;\n\ncontract RegistroInvestigaciones {\n\t\n\t// Estructura de datos  que contiene la informacion relativa a un registro de una investigacin\n        struct Investigacion {\n        \tstring nombre_Investigador;\n        \tstring apellido1_Investigador;\n        \tstring apellido2_Investigador;\n\t\tstring timestamp;\n        \tstring hash_documento;\n        \tuint identificador_institucion;\n\t\tuint identificador_documento;\n        }\n        \n\t// Estructura de datos  que contiene la informacion relativa a una institucion\n\tstruct Institucion {\n\t\tstring nombre_institucion;\n\t\tuint identificador_institucion;\n\t\tuint total_investigaciones_institucion;\n\t\tmapping(uint => Investigacion) listaInvestigaciones_id;\n        \tmapping(string => Investigacion) listaInvestigaciones_hash;\n\t}\n\t\n\t// Un listado de las instituciones registradas en la blockchain\n\tmapping(uint => Institucion) listaInstituciones_id;\n        \n        //Listas globales que identifican todas las investigaciones\n        mapping(uint => Investigacion) listaInvestigaciones_id_global;\n        mapping(string => Investigacion) listaInvestigaciones_hash_global;\n\n        // Contador del total de cursos disponibles\n        uint totalInvestigaciones;\n        \n        //  Direccin ETH del administrador (se inicializa en el constructor y se correspondera con la direccin ETH que despliegue el contrato en la red)\n        address administrador;\n        \n        // Prerequisito para algunas funciones que requieren que sean ejecutadas solo por el administrador\n        modifier onlyAdmin {\n          require(msg.sender == administrador,\n            \"Operacion solo permitida para el administrador del contrato.\"\n          );\n          _;\n        }\n\n        // Prerequisito para algunas funciones que requieren que sean ejecutadas solo por aquellas direcciones ETH autorizadas por el administrador\n        modifier onlyAuthorized(address addr) {\n          require(addr == 0x00,\n            \"Usuario no autorizado para realizar dicha operacion.\"\n          );\n          _;\n        }\n        \n        \n        /**\n        * Constructor del Smart Contract\n        *\n        * Inicializa la variable 'totalInvestigaciones' a cero\n        */\n\tconstructor() public {\n\t\tadministrador = msg.sender;\n        \ttotalInvestigaciones = 0;\n        }\n        \n        \n        /**\n        * Recibe como parametro los datos asociados a una investigacion y procede con su registro.\n        *\n        * @param param_nombre_institucion --> Nombre de la institucion.\n        * @param param_identificador_institucion --> Identificador de la institucion.\n        * @param param_nombre_Investigador --> Nombre del investigador.\n        * @param param_apellido1_Investigador --> Primer apellido del investigador.\n\t* @param param_apellido2_Investigador --> Segundo apellido del investigador.\n\t* @param param_timestamp --> Marca de tiempo del momento en el que se llev a cabo el cifrado del fichero.\n\t* @param param_hash_documento --> Hash del fichero cifrado.\n institucion a la que pertenece la investigacion.\n        */\n        function registrarInvestigacion(string memory param_nombre_institucion, uint param_identificador_institucion, string memory param_nombre_Investigador, string memory param_apellido1_Investigador, string memory param_apellido2_Investigador, string memory param_timestamp, string memory param_hash_documento) public {\n\t\t \n\t\t/*\n\t\t*\tRegistro que referencia a la institucion.\n\t\t*/\n\t\tlistaInstituciones_id[param_identificador_institucion].nombre_institucion = param_nombre_institucion;\n\t\tlistaInstituciones_id[param_identificador_institucion].identificador_institucion = param_identificador_institucion;\n\t\tuint indexInvestigacionInstitucion = listaInstituciones_id[param_identificador_institucion].total_investigaciones_institucion;\n\t\t\n\t\t/*\n\t\t*\tRegistro en la lista que referencia las investigaciones en base a la institucion y su ID\n\t\t*/\n\t\tlistaInstituciones_id[param_identificador_institucion].listaInvestigaciones_id[indexInvestigacionInstitucion].nombre_Investigador = param_nombre_Investigador;\n\t\tlistaInstituciones_id[param_identificador_institucion].listaInvestigaciones_id[indexInvestigacionInstitucion].apellido1_Investigador = param_apellido1_Investigador;\n\t\tlistaInstituciones_id[param_identificador_institucion].listaInvestigaciones_id[indexInvestigacionInstitucion].apellido2_Investigador = param_apellido2_Investigador;\n\t\tlistaInstituciones_id[param_identificador_institucion].listaInvestigaciones_id[indexInvestigacionInstitucion].timestamp = param_timestamp;\n\t\tlistaInstituciones_id[param_identificador_institucion].listaInvestigaciones_id[indexInvestigacionInstitucion].hash_documento = param_hash_documento;\n\t\tlistaInstituciones_id[param_identificador_institucion].listaInvestigaciones_id[indexInvestigacionInstitucion].identificador_institucion = param_identificador_institucion;\n\t\tlistaInstituciones_id[param_identificador_institucion].listaInvestigaciones_id[indexInvestigacionInstitucion].identificador_documento = totalInvestigaciones;\n\t\t\n\t\t/*\n\t\t*\tRegistro en la lista que referencia las investigaciones en base a la institucion y el hash del documento\n\t\t*/\n\t\tlistaInstituciones_id[param_identificador_institucion].listaInvestigaciones_hash[param_hash_documento].nombre_Investigador = param_nombre_Investigador;\n\t\tlistaInstituciones_id[param_identificador_institucion].listaInvestigaciones_hash[param_hash_documento].apellido1_Investigador = param_apellido1_Investigador;\n\t\tlistaInstituciones_id[param_identificador_institucion].listaInvestigaciones_hash[param_hash_documento].apellido2_Investigador = param_apellido2_Investigador;\n\t\tlistaInstituciones_id[param_identificador_institucion].listaInvestigaciones_hash[param_hash_documento].timestamp = param_timestamp;\n\t\tlistaInstituciones_id[param_identificador_institucion].listaInvestigaciones_hash[param_hash_documento].hash_documento = param_hash_documento;\n\t\tlistaInstituciones_id[param_identificador_institucion].listaInvestigaciones_hash[param_hash_documento].identificador_institucion = param_identificador_institucion;\n\t\tlistaInstituciones_id[param_identificador_institucion].listaInvestigaciones_hash[param_hash_documento].identificador_documento = totalInvestigaciones;\n\t\t\n\t\tlistaInstituciones_id[param_identificador_institucion].total_investigaciones_institucion++;\n\t\t\n\t\t/*\n\t\t*\tRegistro en la lista de investigaciones globales en base al ID de la misma.\n\t\t*/\n\t\tlistaInvestigaciones_id_global[totalInvestigaciones].nombre_Investigador = param_nombre_Investigador;\n\t\tlistaInvestigaciones_id_global[totalInvestigaciones].apellido1_Investigador = param_apellido1_Investigador;\n\t\tlistaInvestigaciones_id_global[totalInvestigaciones].apellido2_Investigador = param_apellido2_Investigador;\n\t\tlistaInvestigaciones_id_global[totalInvestigaciones].timestamp = param_timestamp;\n\t\tlistaInvestigaciones_id_global[totalInvestigaciones].hash_documento = param_hash_documento;\n\t\tlistaInvestigaciones_id_global[totalInvestigaciones].identificador_institucion = param_identificador_institucion;\n\t\tlistaInvestigaciones_id_global[totalInvestigaciones].identificador_documento = totalInvestigaciones;\n\n\t\t/*\n\t\t*\tRegistro en la lista de investigaciones globales en base al Hash del documento.\n\t\t*/\n\t\tlistaInvestigaciones_hash_global[param_hash_documento].nombre_Investigador = param_nombre_Investigador;\n\t\tlistaInvestigaciones_hash_global[param_hash_documento].apellido1_Investigador = param_apellido1_Investigador;\n\t\tlistaInvestigaciones_hash_global[param_hash_documento].apellido2_Investigador = param_apellido2_Investigador;\n\t\tlistaInvestigaciones_hash_global[param_hash_documento].timestamp = param_timestamp;\n\t\tlistaInvestigaciones_hash_global[param_hash_documento].hash_documento = param_hash_documento;\n\t\tlistaInvestigaciones_hash_global[param_hash_documento].identificador_institucion = param_identificador_institucion;\n\t\tlistaInvestigaciones_hash_global[param_hash_documento].identificador_documento = totalInvestigaciones;\n\t\t\t\t\n             \ttotalInvestigaciones++;\n        }\n        \n        \n        /**\n        * Esta funcion devuelve el numero total de investigaciones registradas en la blockchain\n        *\n        * @return _totalInvestigaciones --> el numero total de investigaciones registradas\n        */\n        function getNumeroTotalInvestigaciones() public view returns(uint _totalInvestigaciones) {\n                _totalInvestigaciones = totalInvestigaciones;\n        }\n        \n        \n        /**\n        * Esta funcion devuelve el numero total de investigaciones registradas en la blockchain en base al identificador de una institucion.\n        *\n        * @param param_identificador_institucion --> Identificador numerico de la institucion sobre la que realizar la consulta.\n        *\n        * @return _totalInvestigacionesInst --> el numero total de investigaciones registradas para dicha institucion\n        */\n        function getNumeroTotalInvestigacionesInstitucion(uint param_identificador_institucion) public view returns(uint _totalInvestigacionesInst) {\n                _totalInvestigacionesInst = listaInstituciones_id[param_identificador_institucion].total_investigaciones_institucion;\n        }\n\t\t\n\t\n\t/**\n        * Esta funcin retorna, en base al identificador de la investigacion, los datos relacionados con la misma.\n        *\n        * @param param_idInvestigacion -> identificador del curso\n        *\n        * @return _nombre_Investigador --> nombre del investigador\n        * @return _apellido1_Investigador --> apellido 1 del investigador\n        * @return _apellido2_Investigador --> apellido 2 del investigador\n        * @return _timestamp --> timestamp del cifrado del fichero\n        * @return _hash_documento --> hash del fichero cifrado\n        * @return _identificador_documento --> identificador de la investigacion\n        *\n        */\n        function getInfoInvestigacionByID(uint param_idInvestigacion) public view returns(string memory _nombre_Investigador, string memory _apellido1_Investigador , string memory _apellido2_Investigador, string memory _timestamp, string memory _hash_documento, uint _identificador_institucion, uint _identificador_documento){\n\t\t\n\t\trequire(param_idInvestigacion >= 0 && param_idInvestigacion < totalInvestigaciones,\n\t\t \"Identificador de la investigacion no registrada en la blockchain\"\n\t\t );\n              \n              \t_nombre_Investigador = listaInvestigaciones_id_global[param_idInvestigacion].nombre_Investigador;\n              \t_apellido1_Investigador = listaInvestigaciones_id_global[param_idInvestigacion].apellido1_Investigador;\n              \t_apellido2_Investigador = listaInvestigaciones_id_global[param_idInvestigacion].apellido2_Investigador;\n              \t_timestamp = listaInvestigaciones_id_global[param_idInvestigacion].timestamp;\n              \t_hash_documento = listaInvestigaciones_id_global[param_idInvestigacion].hash_documento;\n              \t_identificador_institucion = listaInvestigaciones_id_global[param_idInvestigacion].identificador_institucion;\n              \t_identificador_documento = listaInvestigaciones_id_global[param_idInvestigacion].identificador_documento;\n\n              \treturn (_nombre_Investigador, _apellido1_Investigador, _apellido2_Investigador, _timestamp, _hash_documento, _identificador_institucion, _identificador_documento);\n        }\n        \n        \n        /**\n        * Esta funcin retorna, en base al identificador de la investigacion, los datos relacionados con la misma.\n        *\n        * @param param_hashDocumento -> identificador del curso\n        *\n        * @return _nombre_Investigador --> nombre del investigador\n        * @return _apellido1_Investigador --> apellido 1 del investigador\n        * @return _apellido2_Investigador --> apellido 2 del investigador\n        * @return _timestamp --> timestamp del cifrado del fichero\n        * @return _hash_documento --> hash del fichero cifrado\n        * @return _identificador_documento --> identificador de la investigacion\n        *\n        */\n        function getInfoInvestigacionByHash(string memory param_hashDocumento) public view returns(string memory _nombre_Investigador, string memory _apellido1_Investigador , string memory _apellido2_Investigador, string memory _timestamp, string memory _hash_documento, uint _identificador_institucion, uint _identificador_documento){\n              \n              \t_nombre_Investigador = listaInvestigaciones_hash_global[param_hashDocumento].nombre_Investigador;\n              \t_apellido1_Investigador = listaInvestigaciones_hash_global[param_hashDocumento].apellido1_Investigador;\n              \t_apellido2_Investigador = listaInvestigaciones_hash_global[param_hashDocumento].apellido2_Investigador;\n              \t_timestamp = listaInvestigaciones_hash_global[param_hashDocumento].timestamp;\n              \t_hash_documento = listaInvestigaciones_hash_global[param_hashDocumento].hash_documento;\n              \t_identificador_institucion = listaInvestigaciones_hash_global[param_hashDocumento].identificador_institucion;\n              \t_identificador_documento = listaInvestigaciones_hash_global[param_hashDocumento].identificador_documento;\n\n              \treturn (_nombre_Investigador, _apellido1_Investigador, _apellido2_Investigador, _timestamp, _hash_documento, _identificador_institucion, _identificador_documento);\n        }\n        \n        \n        /**\n        * Esta funcin retorna, en base al identificador de la investigacion, los datos relacionados con la misma.\n        *\n        * @param param_identificador_institucion -> identificador de la institucion\n        * @param param_identificador_investigacion -> identificador de la investigacion\n        *\n        * @return _nombre_Investigador --> nombre del investigador\n        * @return _apellido1_Investigador --> apellido 1 del investigador\n        * @return _apellido2_Investigador --> apellido 2 del investigador\n        * @return _timestamp --> timestamp del cifrado del fichero\n        * @return _hash_documento --> hash del fichero cifrado\n        * @return _identificador_institucion --> identificador de la institucion\n        * @return _identificador_documento --> identificador de la investigacion\n        *\n        */\n        function getInfoInvestigacionByInstAndID(uint param_identificador_institucion, uint param_identificador_investigacion) public view returns(string memory _nombre_Institucion, uint _identificador_institucion, string memory _nombre_Investigador, string memory _apellido1_Investigador , string memory _apellido2_Investigador, string memory _timestamp, string memory _hash_documento, uint _identificador_documento){\n\t\t\n\t\trequire(param_identificador_investigacion >= 0 && param_identificador_investigacion < listaInstituciones_id[param_identificador_institucion].total_investigaciones_institucion,\n\t\t \"Identificador de la investigacion no registrada en la blockchain para dicha institucion\"\n\t\t );\n              \t\n              \t_nombre_Institucion = listaInstituciones_id[param_identificador_institucion].nombre_institucion;\n              \t_identificador_institucion = listaInstituciones_id[param_identificador_institucion].identificador_institucion;\n              \t\n              \t_nombre_Investigador = listaInstituciones_id[param_identificador_institucion].listaInvestigaciones_id[param_identificador_investigacion].nombre_Investigador;\n              \t_apellido1_Investigador = listaInstituciones_id[param_identificador_institucion].listaInvestigaciones_id[param_identificador_investigacion].apellido1_Investigador;\n              \t_apellido2_Investigador = listaInstituciones_id[param_identificador_institucion].listaInvestigaciones_id[param_identificador_investigacion].apellido2_Investigador;\n              \t_timestamp = listaInstituciones_id[param_identificador_institucion].listaInvestigaciones_id[param_identificador_investigacion].timestamp;\n              \t_hash_documento = listaInstituciones_id[param_identificador_institucion].listaInvestigaciones_id[param_identificador_investigacion].hash_documento;\n              \t_identificador_documento = listaInstituciones_id[param_identificador_institucion].listaInvestigaciones_id[param_identificador_investigacion].identificador_documento;\n\n              \treturn (_nombre_Institucion, _identificador_institucion, _nombre_Investigador, _apellido1_Investigador, _apellido2_Investigador, _timestamp, _hash_documento, _identificador_documento);\n        }\n\t\n        \n        /**\n        * Esta funcin retorna, en base a la direccion que recibe si se trata del administrador del contrato o no.\n        *\n        * @param addr --> Direccion ETH a comprobar\n        */\n        function isAdmin(address addr) public view returns(bool resultado) {\n                if(addr == administrador) {\n                \tresultado = true;\n                } else {\n                \tresultado = false;\n                }\n        }\n}\n",
  "sourcePath": "/home/fcscl/gestionFicheros/contracts/RegistroInvestigaciones.sol",
  "compiler": {
    "name": "solc",
    "version": "0.4.25+commit.59dbf8f1.Emscripten.clang"
  },
  "schemaVersion": "3.4.3",
  "updatedAt": "2022-06-02T06:21:30.024Z",
  "devdoc": {
    "methods": {
      "getInfoInvestigacionByHash(string)": {
        "params": {
          "param_hashDocumento": "-> identificador del curso"
        },
        "return": "_nombre_Investigador --> nombre del investigador_apellido1_Investigador --> apellido 1 del investigador_apellido2_Investigador --> apellido 2 del investigador_timestamp --> timestamp del cifrado del fichero_hash_documento --> hash del fichero cifrado_identificador_documento --> identificador de la investigacion        "
      },
      "getInfoInvestigacionByID(uint256)": {
        "params": {
          "param_idInvestigacion": "-> identificador del curso"
        },
        "return": "_nombre_Investigador --> nombre del investigador_apellido1_Investigador --> apellido 1 del investigador_apellido2_Investigador --> apellido 2 del investigador_timestamp --> timestamp del cifrado del fichero_hash_documento --> hash del fichero cifrado_identificador_documento --> identificador de la investigacion        "
      },
      "getInfoInvestigacionByInstAndID(uint256,uint256)": {
        "params": {
          "param_identificador_institucion": "-> identificador de la institucion",
          "param_identificador_investigacion": "-> identificador de la investigacion"
        },
        "return": "_nombre_Investigador --> nombre del investigador_apellido1_Investigador --> apellido 1 del investigador_apellido2_Investigador --> apellido 2 del investigador_timestamp --> timestamp del cifrado del fichero_hash_documento --> hash del fichero cifrado_identificador_institucion --> identificador de la institucion_identificador_documento --> identificador de la investigacion        "
      },
      "getNumeroTotalInvestigaciones()": {
        "return": "_totalInvestigaciones --> el numero total de investigaciones registradas"
      },
      "getNumeroTotalInvestigacionesInstitucion(uint256)": {
        "params": {
          "param_identificador_institucion": "--> Identificador numerico de la institucion sobre la que realizar la consulta."
        },
        "return": "_totalInvestigacionesInst --> el numero total de investigaciones registradas para dicha institucion"
      },
      "isAdmin(address)": {
        "params": {
          "addr": "--> Direccion ETH a comprobar"
        }
      },
      "registrarInvestigacion(string,uint256,string,string,string,string,string)": {
        "params": {
          "param_apellido1_Investigador": "--> Primer apellido del investigador.",
          "param_apellido2_Investigador": "--> Segundo apellido del investigador.",
          "param_hash_documento": "--> Hash del fichero cifrado. institucion a la que pertenece la investigacion.",
          "param_identificador_institucion": "--> Identificador de la institucion.",
          "param_nombre_Investigador": "--> Nombre del investigador.",
          "param_nombre_institucion": "--> Nombre de la institucion.",
          "param_timestamp": "--> Marca de tiempo del momento en el que se llev a cabo el cifrado del fichero."
        }
      }
    }
  },
  "userdoc": {
    "methods": {
      "getInfoInvestigacionByHash(string)": {
        "notice": "Esta funcin retorna, en base al identificador de la investigacion, los datos relacionados con la misma."
      },
      "getInfoInvestigacionByID(uint256)": {
        "notice": "Esta funcin retorna, en base al identificador de la investigacion, los datos relacionados con la misma."
      },
      "getInfoInvestigacionByInstAndID(uint256,uint256)": {
        "notice": "Esta funcin retorna, en base al identificador de la investigacion, los datos relacionados con la misma."
      },
      "getNumeroTotalInvestigaciones()": {
        "notice": "Esta funcion devuelve el numero total de investigaciones registradas en la blockchain"
      },
      "getNumeroTotalInvestigacionesInstitucion(uint256)": {
        "notice": "Esta funcion devuelve el numero total de investigaciones registradas en la blockchain en base al identificador de una institucion."
      },
      "isAdmin(address)": {
        "notice": "Esta funcin retorna, en base a la direccion que recibe si se trata del administrador del contrato o no."
      },
      "registrarInvestigacion(string,uint256,string,string,string,string,string)": {
        "notice": "Recibe como parametro los datos asociados a una investigacion y procede con su registro."
      }
    }
  }
}