{
  "contractName": "RegistroInvestigaciones",
  "abi": [
    {
      "inputs": [],
      "payable": false,
      "stateMutability": "nonpayable",
      "type": "constructor"
    },
    {
      "constant": false,
      "inputs": [
        {
          "internalType": "string",
          "name": "param_nombre_institucion",
          "type": "string"
        },
        {
          "internalType": "uint256",
          "name": "param_identificador_institucion",
          "type": "uint256"
        },
        {
          "internalType": "string",
          "name": "param_nombre_Investigador",
          "type": "string"
        },
        {
          "internalType": "string",
          "name": "param_apellido1_Investigador",
          "type": "string"
        },
        {
          "internalType": "string",
          "name": "param_apellido2_Investigador",
          "type": "string"
        },
        {
          "internalType": "string",
          "name": "param_timestamp",
          "type": "string"
        },
        {
          "internalType": "string",
          "name": "param_hash_documento",
          "type": "string"
        }
      ],
      "name": "registrarInvestigacion",
      "outputs": [],
      "payable": false,
      "stateMutability": "nonpayable",
      "type": "function"
    },
    {
      "constant": true,
      "inputs": [],
      "name": "getNumeroTotalInvestigaciones",
      "outputs": [
        {
          "internalType": "uint256",
          "name": "_totalInvestigaciones",
          "type": "uint256"
        }
      ],
      "payable": false,
      "stateMutability": "view",
      "type": "function"
    },
    {
      "constant": true,
      "inputs": [
        {
          "internalType": "uint256",
          "name": "param_identificador_institucion",
          "type": "uint256"
        }
      ],
      "name": "getNumeroTotalInvestigacionesInstitucion",
      "outputs": [
        {
          "internalType": "uint256",
          "name": "_totalInvestigacionesInst",
          "type": "uint256"
        }
      ],
      "payable": false,
      "stateMutability": "view",
      "type": "function"
    },
    {
      "constant": true,
      "inputs": [
        {
          "internalType": "uint256",
          "name": "param_idInvestigacion",
          "type": "uint256"
        }
      ],
      "name": "getInfoInvestigacionByID",
      "outputs": [
        {
          "internalType": "string",
          "name": "_nombre_Investigador",
          "type": "string"
        },
        {
          "internalType": "string",
          "name": "_apellido1_Investigador",
          "type": "string"
        },
        {
          "internalType": "string",
          "name": "_apellido2_Investigador",
          "type": "string"
        },
        {
          "internalType": "string",
          "name": "_timestamp",
          "type": "string"
        },
        {
          "internalType": "string",
          "name": "_hash_documento",
          "type": "string"
        },
        {
          "internalType": "uint256",
          "name": "_identificador_institucion",
          "type": "uint256"
        },
        {
          "internalType": "uint256",
          "name": "_identificador_documento",
          "type": "uint256"
        }
      ],
      "payable": false,
      "stateMutability": "view",
      "type": "function"
    },
    {
      "constant": true,
      "inputs": [
        {
          "internalType": "string",
          "name": "param_hashDocumento",
          "type": "string"
        }
      ],
      "name": "getInfoInvestigacionByHash",
      "outputs": [
        {
          "internalType": "string",
          "name": "_nombre_Investigador",
          "type": "string"
        },
        {
          "internalType": "string",
          "name": "_apellido1_Investigador",
          "type": "string"
        },
        {
          "internalType": "string",
          "name": "_apellido2_Investigador",
          "type": "string"
        },
        {
          "internalType": "string",
          "name": "_timestamp",
          "type": "string"
        },
        {
          "internalType": "string",
          "name": "_hash_documento",
          "type": "string"
        },
        {
          "internalType": "uint256",
          "name": "_identificador_institucion",
          "type": "uint256"
        },
        {
          "internalType": "uint256",
          "name": "_identificador_documento",
          "type": "uint256"
        }
      ],
      "payable": false,
      "stateMutability": "view",
      "type": "function"
    },
    {
      "constant": true,
      "inputs": [
        {
          "internalType": "uint256",
          "name": "param_identificador_institucion",
          "type": "uint256"
        },
        {
          "internalType": "uint256",
          "name": "param_identificador_investigacion",
          "type": "uint256"
        }
      ],
      "name": "getInfoInvestigacionByInstAndID",
      "outputs": [
        {
          "internalType": "string",
          "name": "_nombre_Institucion",
          "type": "string"
        },
        {
          "internalType": "uint256",
          "name": "_identificador_institucion",
          "type": "uint256"
        },
        {
          "internalType": "string",
          "name": "_nombre_Investigador",
          "type": "string"
        },
        {
          "internalType": "string",
          "name": "_apellido1_Investigador",
          "type": "string"
        },
        {
          "internalType": "string",
          "name": "_apellido2_Investigador",
          "type": "string"
        },
        {
          "internalType": "string",
          "name": "_timestamp",
          "type": "string"
        },
        {
          "internalType": "string",
          "name": "_hash_documento",
          "type": "string"
        },
        {
          "internalType": "uint256",
          "name": "_identificador_documento",
          "type": "uint256"
        }
      ],
      "payable": false,
      "stateMutability": "view",
      "type": "function"
    },
    {
      "constant": true,
      "inputs": [
        {
          "internalType": "address",
          "name": "addr",
          "type": "address"
        }
      ],
      "name": "isAdmin",
      "outputs": [
        {
          "internalType": "bool",
          "name": "resultado",
          "type": "bool"
        }
      ],
      "payable": false,
      "stateMutability": "view",
      "type": "function"
    }
  ],
  "bytecode": "0x608060405234801561001057600080fd5b5033600460006101000a81548173ffffffffffffffffffffffffffffffffffffffff021916908373ffffffffffffffffffffffffffffffffffffffff16021790555060006003819055506129ca806100696000396000f3fe608060405234801561001057600080fd5b506004361061009a576000357c0100000000000000000000000000000000000000000000000000000000900480637137ff5c116100785780637137ff5c1461040b578063a41ea21a146107c3578063d3736c2514610a28578063e05d4d0614610d035761009a565b8063197ffbb21461009f57806324d7806c146100bd5780636deb9bc614610119575b600080fd5b6100a7610d45565b6040518082815260200191505060405180910390f35b6100ff600480360360208110156100d357600080fd5b81019080803573ffffffffffffffffffffffffffffffffffffffff169060200190929190505050610d4f565b604051808215151515815260200191505060405180910390f35b6101d26004803603602081101561012f57600080fd5b810190808035906020019064010000000081111561014c57600080fd5b82018360208201111561015e57600080fd5b8035906020019184600183028401116401000000008311171561018057600080fd5b91908080601f016020809104026020016040519081016040528093929190818152602001838380828437600081840152601f19601f820116905080830192505050505050509192919290505050610dba565b60405180806020018060200180602001806020018060200188815260200187815260200186810386528d818151815260200191508051906020019080838360005b8381101561022e578082015181840152602081019050610213565b50505050905090810190601f16801561025b5780820380516001836020036101000a031916815260200191505b5086810385528c818151815260200191508051906020019080838360005b83811015610294578082015181840152602081019050610279565b50505050905090810190601f1680156102c15780820380516001836020036101000a031916815260200191505b5086810384528b818151815260200191508051906020019080838360005b838110156102fa5780820151818401526020810190506102df565b50505050905090810190601f1680156103275780820380516001836020036101000a031916815260200191505b5086810383528a818151815260200191508051906020019080838360005b83811015610360578082015181840152602081019050610345565b50505050905090810190601f16801561038d5780820380516001836020036101000a031916815260200191505b50868103825289818151815260200191508051906020019080838360005b838110156103c65780820151818401526020810190506103ab565b50505050905090810190601f1680156103f35780820380516001836020036101000a031916815260200191505b509c5050505050505050505050505060405180910390f35b6107c1600480360360e081101561042157600080fd5b810190808035906020019064010000000081111561043e57600080fd5b82018360208201111561045057600080fd5b8035906020019184600183028401116401000000008311171561047257600080fd5b91908080601f016020809104026020016040519081016040528093929190818152602001838380828437600081840152601f19601f82011690508083019250505050505050919291929080359060200190929190803590602001906401000000008111156104df57600080fd5b8201836020820111156104f157600080fd5b8035906020019184600183028401116401000000008311171561051357600080fd5b91908080601f016020809104026020016040519081016040528093929190818152602001838380828437600081840152601f19601f8201169050808301925050505050505091929192908035906020019064010000000081111561057657600080fd5b82018360208201111561058857600080fd5b803590602001918460018302840111640100000000831117156105aa57600080fd5b91908080601f016020809104026020016040519081016040528093929190818152602001838380828437600081840152601f19601f8201169050808301925050505050505091929192908035906020019064010000000081111561060d57600080fd5b82018360208201111561061f57600080fd5b8035906020019184600183028401116401000000008311171561064157600080fd5b91908080601f016020809104026020016040519081016040528093929190818152602001838380828437600081840152601f19601f820116905080830192505050505050509192919290803590602001906401000000008111156106a457600080fd5b8201836020820111156106b657600080fd5b803590602001918460018302840111640100000000831117156106d857600080fd5b91908080601f016020809104026020016040519081016040528093929190818152602001838380828437600081840152601f19601f8201169050808301925050505050505091929192908035906020019064010000000081111561073b57600080fd5b82018360208201111561074d57600080fd5b8035906020019184600183028401116401000000008311171561076f57600080fd5b91908080601f016020809104026020016040519081016040528093929190818152602001838380828437600081840152601f19601f8201169050808301925050505050505091929192905050506113e6565b005b6107ef600480360360208110156107d957600080fd5b8101908080359060200190929190505050611e8d565b60405180806020018060200180602001806020018060200188815260200187815260200186810386528d818151815260200191508051906020019080838360005b8381101561084b578082015181840152602081019050610830565b50505050905090810190601f1680156108785780820380516001836020036101000a031916815260200191505b5086810385528c818151815260200191508051906020019080838360005b838110156108b1578082015181840152602081019050610896565b50505050905090810190601f1680156108de5780820380516001836020036101000a031916815260200191505b5086810384528b818151815260200191508051906020019080838360005b838110156109175780820151818401526020810190506108fc565b50505050905090810190601f1680156109445780820380516001836020036101000a031916815260200191505b5086810383528a818151815260200191508051906020019080838360005b8381101561097d578082015181840152602081019050610962565b50505050905090810190601f1680156109aa5780820380516001836020036101000a031916815260200191505b50868103825289818151815260200191508051906020019080838360005b838110156109e35780820151818401526020810190506109c8565b50505050905090810190601f168015610a105780820380516001836020036101000a031916815260200191505b509c5050505050505050505050505060405180910390f35b610a5e60048036036040811015610a3e57600080fd5b8101908080359060200190929190803590602001909291905050506122c6565b6040518080602001898152602001806020018060200180602001806020018060200188815260200187810387528f818151815260200191508051906020019080838360005b83811015610abe578082015181840152602081019050610aa3565b50505050905090810190601f168015610aeb5780820380516001836020036101000a031916815260200191505b5087810386528d818151815260200191508051906020019080838360005b83811015610b24578082015181840152602081019050610b09565b50505050905090810190601f168015610b515780820380516001836020036101000a031916815260200191505b5087810385528c818151815260200191508051906020019080838360005b83811015610b8a578082015181840152602081019050610b6f565b50505050905090810190601f168015610bb75780820380516001836020036101000a031916815260200191505b5087810384528b818151815260200191508051906020019080838360005b83811015610bf0578082015181840152602081019050610bd5565b50505050905090810190601f168015610c1d5780820380516001836020036101000a031916815260200191505b5087810383528a818151815260200191508051906020019080838360005b83811015610c56578082015181840152602081019050610c3b565b50505050905090810190601f168015610c835780820380516001836020036101000a031916815260200191505b50878103825289818151815260200191508051906020019080838360005b83811015610cbc578082015181840152602081019050610ca1565b50505050905090810190601f168015610ce95780820380516001836020036101000a031916815260200191505b509e50505050505050505050505050505060405180910390f35b610d2f60048036036020811015610d1957600080fd5b810190808035906020019092919050505061283a565b6040518082815260200191505060405180910390f35b6000600354905090565b6000600460009054906101000a900473ffffffffffffffffffffffffffffffffffffffff1673ffffffffffffffffffffffffffffffffffffffff168273ffffffffffffffffffffffffffffffffffffffff161415610db05760019050610db5565b600090505b919050565b60608060608060606000806002886040518082805190602001908083835b60208310610dfb5780518252602082019150602081019050602083039250610dd8565b6001836020036101000a03801982511681845116808217855250505050505090500191505090815260200160405180910390206000018054600181600116156101000203166002900480601f016020809104026020016040519081016040528092919081815260200182805460018160011615610100020316600290048015610ec55780601f10610e9a57610100808354040283529160200191610ec5565b820191906000526020600020905b815481529060010190602001808311610ea857829003601f168201915b505050505096506002886040518082805190602001908083835b60208310610f025780518252602082019150602081019050602083039250610edf565b6001836020036101000a03801982511681845116808217855250505050505090500191505090815260200160405180910390206001018054600181600116156101000203166002900480601f016020809104026020016040519081016040528092919081815260200182805460018160011615610100020316600290048015610fcc5780601f10610fa157610100808354040283529160200191610fcc565b820191906000526020600020905b815481529060010190602001808311610faf57829003601f168201915b505050505095506002886040518082805190602001908083835b602083106110095780518252602082019150602081019050602083039250610fe6565b6001836020036101000a03801982511681845116808217855250505050505090500191505090815260200160405180910390206002018054600181600116156101000203166002900480601f0160208091040260200160405190810160405280929190818152602001828054600181600116156101000203166002900480156110d35780601f106110a8576101008083540402835291602001916110d3565b820191906000526020600020905b8154815290600101906020018083116110b657829003601f168201915b505050505094506002886040518082805190602001908083835b6020831061111057805182526020820191506020810190506020830392506110ed565b6001836020036101000a03801982511681845116808217855250505050505090500191505090815260200160405180910390206003018054600181600116156101000203166002900480601f0160208091040260200160405190810160405280929190818152602001828054600181600116156101000203166002900480156111da5780601f106111af576101008083540402835291602001916111da565b820191906000526020600020905b8154815290600101906020018083116111bd57829003601f168201915b505050505093506002886040518082805190602001908083835b6020831061121757805182526020820191506020810190506020830392506111f4565b6001836020036101000a03801982511681845116808217855250505050505090500191505090815260200160405180910390206004018054600181600116156101000203166002900480601f0160208091040260200160405190810160405280929190818152602001828054600181600116156101000203166002900480156112e15780601f106112b6576101008083540402835291602001916112e1565b820191906000526020600020905b8154815290600101906020018083116112c457829003601f168201915b505050505092506002886040518082805190602001908083835b6020831061131e57805182526020820191506020810190506020830392506112fb565b6001836020036101000a03801982511681845116808217855250505050505090500191505090815260200160405180910390206005015491506002886040518082805190602001908083835b6020831061138d578051825260208201915060208101905060208303925061136a565b6001836020036101000a0380198251168184511680821785525050505050509050019150509081526020016040518091039020600601549050868686868686869650965096509650965096509650919395979092949650565b86600080888152602001908152602001600020600001908051906020019061140f929190612859565b50856000808881526020019081526020016000206001018190555060008060008881526020019081526020016000206002015490508560008089815260200190815260200160002060030160008381526020019081526020016000206000019080519060200190611481929190612859565b5084600080898152602001908152602001600020600301600083815260200190815260200160002060010190805190602001906114bf929190612859565b5083600080898152602001908152602001600020600301600083815260200190815260200160002060020190805190602001906114fd929190612859565b50826000808981526020019081526020016000206003016000838152602001908152602001600020600301908051906020019061153b929190612859565b508160008089815260200190815260200160002060030160008381526020019081526020016000206004019080519060200190611579929190612859565b508660008089815260200190815260200160002060030160008381526020019081526020016000206005018190555060035460008089815260200190815260200160002060030160008381526020019081526020016000206006018190555085600080898152602001908152602001600020600401836040518082805190602001908083835b6020831061162257805182526020820191506020810190506020830392506115ff565b6001836020036101000a0380198251168184511680821785525050505050509050019150509081526020016040518091039020600001908051906020019061166b929190612859565b5084600080898152602001908152602001600020600401836040518082805190602001908083835b602083106116b65780518252602082019150602081019050602083039250611693565b6001836020036101000a038019825116818451168082178552505050505050905001915050908152602001604051809103902060010190805190602001906116ff929190612859565b5083600080898152602001908152602001600020600401836040518082805190602001908083835b6020831061174a5780518252602082019150602081019050602083039250611727565b6001836020036101000a03801982511681845116808217855250505050505090500191505090815260200160405180910390206002019080519060200190611793929190612859565b5082600080898152602001908152602001600020600401836040518082805190602001908083835b602083106117de57805182526020820191506020810190506020830392506117bb565b6001836020036101000a03801982511681845116808217855250505050505090500191505090815260200160405180910390206003019080519060200190611827929190612859565b5081600080898152602001908152602001600020600401836040518082805190602001908083835b60208310611872578051825260208201915060208101905060208303925061184f565b6001836020036101000a038019825116818451168082178552505050505050905001915050908152602001604051809103902060040190805190602001906118bb929190612859565b5086600080898152602001908152602001600020600401836040518082805190602001908083835b6020831061190657805182526020820191506020810190506020830392506118e3565b6001836020036101000a038019825116818451168082178552505050505050905001915050908152602001604051809103902060050181905550600354600080898152602001908152602001600020600401836040518082805190602001908083835b6020831061198c5780518252602082019150602081019050602083039250611969565b6001836020036101000a03801982511681845116808217855250505050505090500191505090815260200160405180910390206006018190555060008088815260200190815260200160002060020160008154809291906001019190505550856001600060035481526020019081526020016000206000019080519060200190611a17929190612859565b50846001600060035481526020019081526020016000206001019080519060200190611a44929190612859565b50836001600060035481526020019081526020016000206002019080519060200190611a71929190612859565b50826001600060035481526020019081526020016000206003019080519060200190611a9e929190612859565b50816001600060035481526020019081526020016000206004019080519060200190611acb929190612859565b50866001600060035481526020019081526020016000206005018190555060035460016000600354815260200190815260200160002060060181905550856002836040518082805190602001908083835b60208310611b3f5780518252602082019150602081019050602083039250611b1c565b6001836020036101000a03801982511681845116808217855250505050505090500191505090815260200160405180910390206000019080519060200190611b88929190612859565b50846002836040518082805190602001908083835b60208310611bc05780518252602082019150602081019050602083039250611b9d565b6001836020036101000a03801982511681845116808217855250505050505090500191505090815260200160405180910390206001019080519060200190611c09929190612859565b50836002836040518082805190602001908083835b60208310611c415780518252602082019150602081019050602083039250611c1e565b6001836020036101000a03801982511681845116808217855250505050505090500191505090815260200160405180910390206002019080519060200190611c8a929190612859565b50826002836040518082805190602001908083835b60208310611cc25780518252602082019150602081019050602083039250611c9f565b6001836020036101000a03801982511681845116808217855250505050505090500191505090815260200160405180910390206003019080519060200190611d0b929190612859565b50816002836040518082805190602001908083835b60208310611d435780518252602082019150602081019050602083039250611d20565b6001836020036101000a03801982511681845116808217855250505050505090500191505090815260200160405180910390206004019080519060200190611d8c929190612859565b50866002836040518082805190602001908083835b60208310611dc45780518252602082019150602081019050602083039250611da1565b6001836020036101000a0380198251168184511680821785525050505050509050019150509081526020016040518091039020600501819055506003546002836040518082805190602001908083835b60208310611e375780518252602082019150602081019050602083039250611e14565b6001836020036101000a0380198251168184511680821785525050505050509050019150509081526020016040518091039020600601819055506003600081548092919060010191905055505050505050505050565b606080606080606060008060008810158015611eaa575060035488105b611eff576040517f08c379a00000000000000000000000000000000000000000000000000000000081526004018080602001828103825260408152602001806129566040913960400191505060405180910390fd5b600160008981526020019081526020016000206000018054600181600116156101000203166002900480601f016020809104026020016040519081016040528092919081815260200182805460018160011615610100020316600290048015611fa95780601f10611f7e57610100808354040283529160200191611fa9565b820191906000526020600020905b815481529060010190602001808311611f8c57829003601f168201915b50505050509650600160008981526020019081526020016000206001018054600181600116156101000203166002900480601f01602080910402602001604051908101604052809291908181526020018280546001816001161561010002031660029004801561205a5780601f1061202f5761010080835404028352916020019161205a565b820191906000526020600020905b81548152906001019060200180831161203d57829003601f168201915b50505050509550600160008981526020019081526020016000206002018054600181600116156101000203166002900480601f01602080910402602001604051908101604052809291908181526020018280546001816001161561010002031660029004801561210b5780601f106120e05761010080835404028352916020019161210b565b820191906000526020600020905b8154815290600101906020018083116120ee57829003601f168201915b50505050509450600160008981526020019081526020016000206003018054600181600116156101000203166002900480601f0160208091040260200160405190810160405280929190818152602001828054600181600116156101000203166002900480156121bc5780601f10612191576101008083540402835291602001916121bc565b820191906000526020600020905b81548152906001019060200180831161219f57829003601f168201915b50505050509350600160008981526020019081526020016000206004018054600181600116156101000203166002900480601f01602080910402602001604051908101604052809291908181526020018280546001816001161561010002031660029004801561226d5780601f106122425761010080835404028352916020019161226d565b820191906000526020600020905b81548152906001019060200180831161225057829003601f168201915b505050505092506001600089815260200190815260200160002060050154915060016000898152602001908152602001600020600601549050868686868686869650965096509650965096509650919395979092949650565b60606000606080606080606060008089101580156122f857506000808b81526020019081526020016000206002015489105b61234d576040517f08c379a00000000000000000000000000000000000000000000000000000000081526004018080602001828103825260578152602001806128ff6057913960600191505060405180910390fd5b6000808b81526020019081526020016000206000018054600181600116156101000203166002900480601f0160208091040260200160405190810160405280929190818152602001828054600181600116156101000203166002900480156123f65780601f106123cb576101008083540402835291602001916123f6565b820191906000526020600020905b8154815290600101906020018083116123d957829003601f168201915b505050505097506000808b81526020019081526020016000206001015496506000808b815260200190815260200160002060030160008a81526020019081526020016000206000018054600181600116156101000203166002900480601f0160208091040260200160405190810160405280929190818152602001828054600181600116156101000203166002900480156124d25780601f106124a7576101008083540402835291602001916124d2565b820191906000526020600020905b8154815290600101906020018083116124b557829003601f168201915b505050505095506000808b815260200190815260200160002060030160008a81526020019081526020016000206001018054600181600116156101000203166002900480601f0160208091040260200160405190810160405280929190818152602001828054600181600116156101000203166002900480156125965780601f1061256b57610100808354040283529160200191612596565b820191906000526020600020905b81548152906001019060200180831161257957829003601f168201915b505050505094506000808b815260200190815260200160002060030160008a81526020019081526020016000206002018054600181600116156101000203166002900480601f01602080910402602001604051908101604052809291908181526020018280546001816001161561010002031660029004801561265a5780601f1061262f5761010080835404028352916020019161265a565b820191906000526020600020905b81548152906001019060200180831161263d57829003601f168201915b505050505093506000808b815260200190815260200160002060030160008a81526020019081526020016000206003018054600181600116156101000203166002900480601f01602080910402602001604051908101604052809291908181526020018280546001816001161561010002031660029004801561271e5780601f106126f35761010080835404028352916020019161271e565b820191906000526020600020905b81548152906001019060200180831161270157829003601f168201915b505050505092506000808b815260200190815260200160002060030160008a81526020019081526020016000206004018054600181600116156101000203166002900480601f0160208091040260200160405190810160405280929190818152602001828054600181600116156101000203166002900480156127e25780601f106127b7576101008083540402835291602001916127e2565b820191906000526020600020905b8154815290600101906020018083116127c557829003601f168201915b505050505091506000808b815260200190815260200160002060030160008a81526020019081526020016000206006015490508787878787878787975097509750975097509750975097509295985092959890939650565b6000806000838152602001908152602001600020600201549050919050565b828054600181600116156101000203166002900490600052602060002090601f016020900481019282601f1061289a57805160ff19168380011785556128c8565b828001600101855582156128c8579182015b828111156128c75782518255916020019190600101906128ac565b5b5090506128d591906128d9565b5090565b6128fb91905b808211156128f75760008160009055506001016128df565b5090565b9056fe4964656e746966696361646f72206465206c6120696e7665737469676163696f6e206e6f207265676973747261646120656e206c6120626c6f636b636861696e207061726120646963686120696e737469747563696f6e4964656e746966696361646f72206465206c6120696e7665737469676163696f6e206e6f207265676973747261646120656e206c6120626c6f636b636861696ea265627a7a723158208606b8e1c0e703eab9bc56bea560d84ca0249f827aa250de52d01d7d6e2642a364736f6c63430005110032",
  "source": "pragma solidity >=0.4.22 <0.9.0;\n\ncontract RegistroInvestigaciones {\n\t\n\n        struct Investigacion {\n        \tstring nombre_Investigador;\n        \tstring apellido1_Investigador;\n        \tstring apellido2_Investigador;\n\t\tstring timestamp;\n        \tstring hash_documento;\n        \tuint identificador_institucion;\n\t\tuint identificador_documento;\n        }\n        \n        \n\tstruct Institucion {\n\t\tstring nombre_institucion;\n\t\tuint identificador_institucion;\n\t\tuint total_investigaciones_institucion;\n\t\tmapping(uint => Investigacion) listaInvestigaciones_id;\n        \tmapping(string => Investigacion) listaInvestigaciones_hash;\n\t}\n\t\n\t\n\tmapping(uint => Institucion) listaInstituciones_id;\n        \n        \n        mapping(uint => Investigacion) listaInvestigaciones_id_global;\n        mapping(string => Investigacion) listaInvestigaciones_hash_global;\n\n\n        uint totalInvestigaciones;\n        \n        \n        address administrador;\n        \n\n\tconstructor() public {\n\t\tadministrador = msg.sender;\n        \ttotalInvestigaciones = 0;\n        }\n        \n        \n        \n        function registrarInvestigacion(string memory param_nombre_institucion, uint param_identificador_institucion, string memory param_nombre_Investigador, string memory param_apellido1_Investigador, string memory param_apellido2_Investigador, string memory param_timestamp, string memory param_hash_documento) public {\n\t\t \n\t\t\n\t\tlistaInstituciones_id[param_identificador_institucion].nombre_institucion = param_nombre_institucion;\n\t\tlistaInstituciones_id[param_identificador_institucion].identificador_institucion = param_identificador_institucion;\n\t\tuint indexInvestigacionInstitucion = listaInstituciones_id[param_identificador_institucion].total_investigaciones_institucion;\n\t\t\n\t\tlistaInstituciones_id[param_identificador_institucion].listaInvestigaciones_id[indexInvestigacionInstitucion].nombre_Investigador = param_nombre_Investigador;\n\t\tlistaInstituciones_id[param_identificador_institucion].listaInvestigaciones_id[indexInvestigacionInstitucion].apellido1_Investigador = param_apellido1_Investigador;\n\t\tlistaInstituciones_id[param_identificador_institucion].listaInvestigaciones_id[indexInvestigacionInstitucion].apellido2_Investigador = param_apellido2_Investigador;\n\t\tlistaInstituciones_id[param_identificador_institucion].listaInvestigaciones_id[indexInvestigacionInstitucion].timestamp = param_timestamp;\n\t\tlistaInstituciones_id[param_identificador_institucion].listaInvestigaciones_id[indexInvestigacionInstitucion].hash_documento = param_hash_documento;\n\t\tlistaInstituciones_id[param_identificador_institucion].listaInvestigaciones_id[indexInvestigacionInstitucion].identificador_institucion = param_identificador_institucion;\n\t\tlistaInstituciones_id[param_identificador_institucion].listaInvestigaciones_id[indexInvestigacionInstitucion].identificador_documento = totalInvestigaciones;\n\t\t\n\t\tlistaInstituciones_id[param_identificador_institucion].listaInvestigaciones_hash[param_hash_documento].nombre_Investigador = param_nombre_Investigador;\n\t\tlistaInstituciones_id[param_identificador_institucion].listaInvestigaciones_hash[param_hash_documento].apellido1_Investigador = param_apellido1_Investigador;\n\t\tlistaInstituciones_id[param_identificador_institucion].listaInvestigaciones_hash[param_hash_documento].apellido2_Investigador = param_apellido2_Investigador;\n\t\tlistaInstituciones_id[param_identificador_institucion].listaInvestigaciones_hash[param_hash_documento].timestamp = param_timestamp;\n\t\tlistaInstituciones_id[param_identificador_institucion].listaInvestigaciones_hash[param_hash_documento].hash_documento = param_hash_documento;\n\t\tlistaInstituciones_id[param_identificador_institucion].listaInvestigaciones_hash[param_hash_documento].identificador_institucion = param_identificador_institucion;\n\t\tlistaInstituciones_id[param_identificador_institucion].listaInvestigaciones_hash[param_hash_documento].identificador_documento = totalInvestigaciones;\n\t\t\n\t\tlistaInstituciones_id[param_identificador_institucion].total_investigaciones_institucion++;\n\t\t\n\t\t\n\t\tlistaInvestigaciones_id_global[totalInvestigaciones].nombre_Investigador = param_nombre_Investigador;\n\t\tlistaInvestigaciones_id_global[totalInvestigaciones].apellido1_Investigador = param_apellido1_Investigador;\n\t\tlistaInvestigaciones_id_global[totalInvestigaciones].apellido2_Investigador = param_apellido2_Investigador;\n\t\tlistaInvestigaciones_id_global[totalInvestigaciones].timestamp = param_timestamp;\n\t\tlistaInvestigaciones_id_global[totalInvestigaciones].hash_documento = param_hash_documento;\n\t\tlistaInvestigaciones_id_global[totalInvestigaciones].identificador_institucion = param_identificador_institucion;\n\t\tlistaInvestigaciones_id_global[totalInvestigaciones].identificador_documento = totalInvestigaciones;\n\n\t\t\n\t\tlistaInvestigaciones_hash_global[param_hash_documento].nombre_Investigador = param_nombre_Investigador;\n\t\tlistaInvestigaciones_hash_global[param_hash_documento].apellido1_Investigador = param_apellido1_Investigador;\n\t\tlistaInvestigaciones_hash_global[param_hash_documento].apellido2_Investigador = param_apellido2_Investigador;\n\t\tlistaInvestigaciones_hash_global[param_hash_documento].timestamp = param_timestamp;\n\t\tlistaInvestigaciones_hash_global[param_hash_documento].hash_documento = param_hash_documento;\n\t\tlistaInvestigaciones_hash_global[param_hash_documento].identificador_institucion = param_identificador_institucion;\n\t\tlistaInvestigaciones_hash_global[param_hash_documento].identificador_documento = totalInvestigaciones;\n\t\t\t\t\n             \ttotalInvestigaciones++;\n        }\n        \n        \n        \n        function getNumeroTotalInvestigaciones() public view returns(uint _totalInvestigaciones) {\n                _totalInvestigaciones = totalInvestigaciones;\n        }\n        \n        \n        \n        function getNumeroTotalInvestigacionesInstitucion(uint param_identificador_institucion) public view returns(uint _totalInvestigacionesInst) {\n                _totalInvestigacionesInst = listaInstituciones_id[param_identificador_institucion].total_investigaciones_institucion;\n        }\n\t\t\n\t\n\t\n        function getInfoInvestigacionByID(uint param_idInvestigacion) public view returns(string memory _nombre_Investigador, string memory _apellido1_Investigador , string memory _apellido2_Investigador, string memory _timestamp, string memory _hash_documento, uint _identificador_institucion, uint _identificador_documento){\n\t\t\n\t\trequire(param_idInvestigacion >= 0 && param_idInvestigacion < totalInvestigaciones,\n\t\t \"Identificador de la investigacion no registrada en la blockchain\"\n\t\t );\n              \n              \t_nombre_Investigador = listaInvestigaciones_id_global[param_idInvestigacion].nombre_Investigador;\n              \t_apellido1_Investigador = listaInvestigaciones_id_global[param_idInvestigacion].apellido1_Investigador;\n              \t_apellido2_Investigador = listaInvestigaciones_id_global[param_idInvestigacion].apellido2_Investigador;\n              \t_timestamp = listaInvestigaciones_id_global[param_idInvestigacion].timestamp;\n              \t_hash_documento = listaInvestigaciones_id_global[param_idInvestigacion].hash_documento;\n              \t_identificador_institucion = listaInvestigaciones_id_global[param_idInvestigacion].identificador_institucion;\n              \t_identificador_documento = listaInvestigaciones_id_global[param_idInvestigacion].identificador_documento;\n\n              \treturn (_nombre_Investigador, _apellido1_Investigador, _apellido2_Investigador, _timestamp, _hash_documento, _identificador_institucion, _identificador_documento);\n        }\n        \n        \n        \n        function getInfoInvestigacionByHash(string memory param_hashDocumento) public view returns(string memory _nombre_Investigador, string memory _apellido1_Investigador , string memory _apellido2_Investigador, string memory _timestamp, string memory _hash_documento, uint _identificador_institucion, uint _identificador_documento){\n              \n              \t_nombre_Investigador = listaInvestigaciones_hash_global[param_hashDocumento].nombre_Investigador;\n              \t_apellido1_Investigador = listaInvestigaciones_hash_global[param_hashDocumento].apellido1_Investigador;\n              \t_apellido2_Investigador = listaInvestigaciones_hash_global[param_hashDocumento].apellido2_Investigador;\n              \t_timestamp = listaInvestigaciones_hash_global[param_hashDocumento].timestamp;\n              \t_hash_documento = listaInvestigaciones_hash_global[param_hashDocumento].hash_documento;\n              \t_identificador_institucion = listaInvestigaciones_hash_global[param_hashDocumento].identificador_institucion;\n              \t_identificador_documento = listaInvestigaciones_hash_global[param_hashDocumento].identificador_documento;\n\n              \treturn (_nombre_Investigador, _apellido1_Investigador, _apellido2_Investigador, _timestamp, _hash_documento, _identificador_institucion, _identificador_documento);\n        }\n        \n        \n        \n        function getInfoInvestigacionByInstAndID(uint param_identificador_institucion, uint param_identificador_investigacion) public view returns(string memory _nombre_Institucion, uint _identificador_institucion, string memory _nombre_Investigador, string memory _apellido1_Investigador , string memory _apellido2_Investigador, string memory _timestamp, string memory _hash_documento, uint _identificador_documento){\n\t\t\n\t\trequire(param_identificador_investigacion >= 0 && param_identificador_investigacion < listaInstituciones_id[param_identificador_institucion].total_investigaciones_institucion,\n\t\t \"Identificador de la investigacion no registrada en la blockchain para dicha institucion\"\n\t\t );\n              \t\n              \t_nombre_Institucion = listaInstituciones_id[param_identificador_institucion].nombre_institucion;\n              \t_identificador_institucion = listaInstituciones_id[param_identificador_institucion].identificador_institucion;\n              \t\n              \t_nombre_Investigador = listaInstituciones_id[param_identificador_institucion].listaInvestigaciones_id[param_identificador_investigacion].nombre_Investigador;\n              \t_apellido1_Investigador = listaInstituciones_id[param_identificador_institucion].listaInvestigaciones_id[param_identificador_investigacion].apellido1_Investigador;\n              \t_apellido2_Investigador = listaInstituciones_id[param_identificador_institucion].listaInvestigaciones_id[param_identificador_investigacion].apellido2_Investigador;\n              \t_timestamp = listaInstituciones_id[param_identificador_institucion].listaInvestigaciones_id[param_identificador_investigacion].timestamp;\n              \t_hash_documento = listaInstituciones_id[param_identificador_institucion].listaInvestigaciones_id[param_identificador_investigacion].hash_documento;\n              \t_identificador_documento = listaInstituciones_id[param_identificador_institucion].listaInvestigaciones_id[param_identificador_investigacion].identificador_documento;\n\n              \treturn (_nombre_Institucion, _identificador_institucion, _nombre_Investigador, _apellido1_Investigador, _apellido2_Investigador, _timestamp, _hash_documento, _identificador_documento);\n        }\n\t\n        \n        \n        function isAdmin(address addr) public view returns(bool resultado) {\n                if(addr == administrador) {\n                \tresultado = true;\n                } else {\n                \tresultado = false;\n                }\n        }\n}\n",
  "sourcePath": "/home/fcscl/gestionFicheros/contracts/RegistroInvestigaciones.sol",
  "compiler": {
    "name": "solc",
    "version": "0.5.17+commit.d19bba13.Emscripten.clang"
  },
  "schemaVersion": "3.4.3",
  "updatedAt": "2022-07-04T07:20:35.643Z",
  "networkType": "ethereum",
  "devdoc": {
    "methods": {}
  },
  "userdoc": {
    "methods": {}
  }
}